{
  "_format": "hh-sol-artifact-1",
  "contractName": "MyEpicNFT",
  "sourceName": "contracts/MyEpicNFT.sol",
  "abi": [
    {
      "inputs": [],
      "stateMutability": "nonpayable",
      "type": "constructor"
    },
    {
      "anonymous": false,
      "inputs": [
        {
          "indexed": true,
          "internalType": "address",
          "name": "owner",
          "type": "address"
        },
        {
          "indexed": true,
          "internalType": "address",
          "name": "approved",
          "type": "address"
        },
        {
          "indexed": true,
          "internalType": "uint256",
          "name": "tokenId",
          "type": "uint256"
        }
      ],
      "name": "Approval",
      "type": "event"
    },
    {
      "anonymous": false,
      "inputs": [
        {
          "indexed": true,
          "internalType": "address",
          "name": "owner",
          "type": "address"
        },
        {
          "indexed": true,
          "internalType": "address",
          "name": "operator",
          "type": "address"
        },
        {
          "indexed": false,
          "internalType": "bool",
          "name": "approved",
          "type": "bool"
        }
      ],
      "name": "ApprovalForAll",
      "type": "event"
    },
    {
      "anonymous": false,
      "inputs": [
        {
          "indexed": false,
          "internalType": "address",
          "name": "sender",
          "type": "address"
        },
        {
          "indexed": false,
          "internalType": "uint256",
          "name": "tokenId",
          "type": "uint256"
        }
      ],
      "name": "NewEpicNFTMinted",
      "type": "event"
    },
    {
      "anonymous": false,
      "inputs": [
        {
          "indexed": true,
          "internalType": "address",
          "name": "from",
          "type": "address"
        },
        {
          "indexed": true,
          "internalType": "address",
          "name": "to",
          "type": "address"
        },
        {
          "indexed": true,
          "internalType": "uint256",
          "name": "tokenId",
          "type": "uint256"
        }
      ],
      "name": "Transfer",
      "type": "event"
    },
    {
      "inputs": [
        {
          "internalType": "address",
          "name": "to",
          "type": "address"
        },
        {
          "internalType": "uint256",
          "name": "tokenId",
          "type": "uint256"
        }
      ],
      "name": "approve",
      "outputs": [],
      "stateMutability": "nonpayable",
      "type": "function"
    },
    {
      "inputs": [
        {
          "internalType": "address",
          "name": "owner",
          "type": "address"
        }
      ],
      "name": "balanceOf",
      "outputs": [
        {
          "internalType": "uint256",
          "name": "",
          "type": "uint256"
        }
      ],
      "stateMutability": "view",
      "type": "function"
    },
    {
      "inputs": [
        {
          "internalType": "uint256",
          "name": "tokenId",
          "type": "uint256"
        }
      ],
      "name": "getApproved",
      "outputs": [
        {
          "internalType": "address",
          "name": "",
          "type": "address"
        }
      ],
      "stateMutability": "view",
      "type": "function"
    },
    {
      "inputs": [],
      "name": "getTotalMints",
      "outputs": [
        {
          "internalType": "uint256",
          "name": "",
          "type": "uint256"
        }
      ],
      "stateMutability": "view",
      "type": "function"
    },
    {
      "inputs": [
        {
          "internalType": "address",
          "name": "owner",
          "type": "address"
        },
        {
          "internalType": "address",
          "name": "operator",
          "type": "address"
        }
      ],
      "name": "isApprovedForAll",
      "outputs": [
        {
          "internalType": "bool",
          "name": "",
          "type": "bool"
        }
      ],
      "stateMutability": "view",
      "type": "function"
    },
    {
      "inputs": [],
      "name": "makeAnEpicNFT",
      "outputs": [],
      "stateMutability": "nonpayable",
      "type": "function"
    },
    {
      "inputs": [],
      "name": "name",
      "outputs": [
        {
          "internalType": "string",
          "name": "",
          "type": "string"
        }
      ],
      "stateMutability": "view",
      "type": "function"
    },
    {
      "inputs": [
        {
          "internalType": "uint256",
          "name": "tokenId",
          "type": "uint256"
        }
      ],
      "name": "ownerOf",
      "outputs": [
        {
          "internalType": "address",
          "name": "",
          "type": "address"
        }
      ],
      "stateMutability": "view",
      "type": "function"
    },
    {
      "inputs": [
        {
          "internalType": "uint256",
          "name": "tokenId",
          "type": "uint256"
        }
      ],
      "name": "pickRandomColor",
      "outputs": [
        {
          "internalType": "string",
          "name": "",
          "type": "string"
        }
      ],
      "stateMutability": "view",
      "type": "function"
    },
    {
      "inputs": [
        {
          "internalType": "uint256",
          "name": "tokenId",
          "type": "uint256"
        }
      ],
      "name": "pickRandomFirstWord",
      "outputs": [
        {
          "internalType": "string",
          "name": "",
          "type": "string"
        }
      ],
      "stateMutability": "view",
      "type": "function"
    },
    {
      "inputs": [
        {
          "internalType": "uint256",
          "name": "tokenId",
          "type": "uint256"
        }
      ],
      "name": "pickRandomSecondWord",
      "outputs": [
        {
          "internalType": "string",
          "name": "",
          "type": "string"
        }
      ],
      "stateMutability": "view",
      "type": "function"
    },
    {
      "inputs": [
        {
          "internalType": "uint256",
          "name": "tokenId",
          "type": "uint256"
        }
      ],
      "name": "pickRandomThirdWord",
      "outputs": [
        {
          "internalType": "string",
          "name": "",
          "type": "string"
        }
      ],
      "stateMutability": "view",
      "type": "function"
    },
    {
      "inputs": [
        {
          "internalType": "address",
          "name": "from",
          "type": "address"
        },
        {
          "internalType": "address",
          "name": "to",
          "type": "address"
        },
        {
          "internalType": "uint256",
          "name": "tokenId",
          "type": "uint256"
        }
      ],
      "name": "safeTransferFrom",
      "outputs": [],
      "stateMutability": "nonpayable",
      "type": "function"
    },
    {
      "inputs": [
        {
          "internalType": "address",
          "name": "from",
          "type": "address"
        },
        {
          "internalType": "address",
          "name": "to",
          "type": "address"
        },
        {
          "internalType": "uint256",
          "name": "tokenId",
          "type": "uint256"
        },
        {
          "internalType": "bytes",
          "name": "_data",
          "type": "bytes"
        }
      ],
      "name": "safeTransferFrom",
      "outputs": [],
      "stateMutability": "nonpayable",
      "type": "function"
    },
    {
      "inputs": [
        {
          "internalType": "address",
          "name": "operator",
          "type": "address"
        },
        {
          "internalType": "bool",
          "name": "approved",
          "type": "bool"
        }
      ],
      "name": "setApprovalForAll",
      "outputs": [],
      "stateMutability": "nonpayable",
      "type": "function"
    },
    {
      "inputs": [
        {
          "internalType": "bytes4",
          "name": "interfaceId",
          "type": "bytes4"
        }
      ],
      "name": "supportsInterface",
      "outputs": [
        {
          "internalType": "bool",
          "name": "",
          "type": "bool"
        }
      ],
      "stateMutability": "view",
      "type": "function"
    },
    {
      "inputs": [],
      "name": "symbol",
      "outputs": [
        {
          "internalType": "string",
          "name": "",
          "type": "string"
        }
      ],
      "stateMutability": "view",
      "type": "function"
    },
    {
      "inputs": [
        {
          "internalType": "uint256",
          "name": "tokenId",
          "type": "uint256"
        }
      ],
      "name": "tokenURI",
      "outputs": [
        {
          "internalType": "string",
          "name": "",
          "type": "string"
        }
      ],
      "stateMutability": "view",
      "type": "function"
    },
    {
      "inputs": [
        {
          "internalType": "address",
          "name": "from",
          "type": "address"
        },
        {
          "internalType": "address",
          "name": "to",
          "type": "address"
        },
        {
          "internalType": "uint256",
          "name": "tokenId",
          "type": "uint256"
        }
      ],
      "name": "transferFrom",
      "outputs": [],
      "stateMutability": "nonpayable",
      "type": "function"
    }
  ],
  "bytecode": "0x608060405260405180610100016040528060d3815260200162004eba60d39139600890805190602001906200003692919062000f19565b5060405180608001604052806056815260200162004f8d60569139600990805190602001906200006892919062000f19565b506040518061020001604052806040518060400160405280600581526020017f6275696c6400000000000000000000000000000000000000000000000000000081525081526020016040518060400160405280600581526020017f737061636500000000000000000000000000000000000000000000000000000081525081526020016040518060400160405280600781526020017f747769747465720000000000000000000000000000000000000000000000000081525081526020016040518060400160405280600781526020017f756e69636f726e0000000000000000000000000000000000000000000000000081525081526020016040518060400160405280600481526020017f626972640000000000000000000000000000000000000000000000000000000081525081526020016040518060400160405280600881526020017f656c657068616e7400000000000000000000000000000000000000000000000081525081526020016040518060400160405280600681526020017f6465766f7465000000000000000000000000000000000000000000000000000081525081526020016040518060400160405280600781526020017f61706f6c6f67790000000000000000000000000000000000000000000000000081525081526020016040518060400160405280600581526020017f666169727900000000000000000000000000000000000000000000000000000081525081526020016040518060400160405280600581526020017f72616e676500000000000000000000000000000000000000000000000000000081525081526020016040518060400160405280600781526020017f7377616c6c6f770000000000000000000000000000000000000000000000000081525081526020016040518060400160405280600781526020017f726566657265650000000000000000000000000000000000000000000000000081525081526020016040518060400160405280600481526020017f72756c650000000000000000000000000000000000000000000000000000000081525081526020016040518060400160405280600481526020017f6865726f0000000000000000000000000000000000000000000000000000000081525081526020016040518060400160405280600d81526020017f7175616c696669636174696f6e0000000000000000000000000000000000000081525081526020016040518060400160405280600c81526020017f726566726967657261746f720000000000000000000000000000000000000000815250815250600a9060106200043592919062000faa565b506040518061020001604052806040518060400160405280600281526020017f343200000000000000000000000000000000000000000000000000000000000081525081526020016040518060400160405280600581526020017f646f6e757400000000000000000000000000000000000000000000000000000081525081526020016040518060400160405280600881526020017f73616e647769636800000000000000000000000000000000000000000000000081525081526020016040518060400160405280600981526020017f7368616b7368756b61000000000000000000000000000000000000000000000081525081526020016040518060400160405280600881526020017f657468657265756d00000000000000000000000000000000000000000000000081525081526020016040518060400160405280600981526020017f677265656e6865726f000000000000000000000000000000000000000000000081525081526020016040518060400160405280600481526020017f6c6173740000000000000000000000000000000000000000000000000000000081525081526020016040518060400160405280600881526020017f6d696e6f7269747900000000000000000000000000000000000000000000000081525081526020016040518060400160405280600a81526020017f72657075746174696f6e0000000000000000000000000000000000000000000081525081526020016040518060400160405280600781526020017f6465636c696e650000000000000000000000000000000000000000000000000081525081526020016040518060400160405280600b81526020017f6167726963756c7475726500000000000000000000000000000000000000000081525081526020016040518060400160405280600481526020017f62616c6c0000000000000000000000000000000000000000000000000000000081525081526020016040518060400160405280600881526020017f646973617374657200000000000000000000000000000000000000000000000081525081526020016040518060400160405280600981526020017f666f726569676e6572000000000000000000000000000000000000000000000081525081526020016040518060400160405280600581526020017f737461727400000000000000000000000000000000000000000000000000000081525081526020016040518060400160405280600781526020017f696e64756c676500000000000000000000000000000000000000000000000000815250815250600b9060106200080292919062000faa565b506040518061020001604052806040518060400160405280600781526020017f7261696e626f770000000000000000000000000000000000000000000000000081525081526020016040518060400160405280600981526020017f776174657266616c6c000000000000000000000000000000000000000000000081525081526020016040518060400160405280600b81526020017f627574746572666c69657300000000000000000000000000000000000000000081525081526020016040518060400160405280600981526020017f6d6574617665727365000000000000000000000000000000000000000000000081525081526020016040518060400160405280600581526020017f6170706c6500000000000000000000000000000000000000000000000000000081525081526020016040518060400160405280600681526020017f62616e616e61000000000000000000000000000000000000000000000000000081525081526020016040518060400160405280600481526020017f7a6f6e650000000000000000000000000000000000000000000000000000000081525081526020016040518060400160405280600781526020017f636f6d6d656e740000000000000000000000000000000000000000000000000081525081526020016040518060400160405280600481526020017f726f6c650000000000000000000000000000000000000000000000000000000081525081526020016040518060400160405280600881526020017f686172647761726500000000000000000000000000000000000000000000000081525081526020016040518060400160405280600981526020017f63697263756c617465000000000000000000000000000000000000000000000081525081526020016040518060400160405280600981526020017f6661766f7572697465000000000000000000000000000000000000000000000081525081526020016040518060400160405280600681526020017f616476696365000000000000000000000000000000000000000000000000000081525081526020016040518060400160405280600481526020017f6461726b0000000000000000000000000000000000000000000000000000000081525081526020016040518060400160405280600581526020017f676c61737300000000000000000000000000000000000000000000000000000081525081526020016040518060400160405280600781526020017f7375737065637400000000000000000000000000000000000000000000000000815250815250600c90601062000bcf92919062000faa565b506040518060c001604052806040518060400160405280600381526020017f726564000000000000000000000000000000000000000000000000000000000081525081526020016040518060400160405280600781526020017f233038433241380000000000000000000000000000000000000000000000000081525081526020016040518060400160405280600581526020017f626c61636b00000000000000000000000000000000000000000000000000000081525081526020016040518060400160405280600681526020017f79656c6c6f77000000000000000000000000000000000000000000000000000081525081526020016040518060400160405280600481526020017f626c75650000000000000000000000000000000000000000000000000000000081525081526020016040518060400160405280600581526020017f677265656e000000000000000000000000000000000000000000000000000000815250815250600d90600662000d4d92919062001011565b5034801562000d5b57600080fd5b506040518060400160405280600981526020017f5371756172654e465400000000000000000000000000000000000000000000008152506040518060400160405280600681526020017f5351554152450000000000000000000000000000000000000000000000000000815250816000908051906020019062000de092919062000f19565b50806001908051906020019062000df992919062000f19565b50505062000e476040518060400160405280601f81526020017f4372656174696e67206d79206669727374204e465420636f6e7472616374210081525062000e4d60201b6200146b1760201c565b62001232565b62000eed8160405160240162000e64919062001146565b6040516020818303038152906040527f41304fac000000000000000000000000000000000000000000000000000000007bffffffffffffffffffffffffffffffffffffffffffffffffffffffff19166020820180517bffffffffffffffffffffffffffffffffffffffffffffffffffffffff838183161783525050505062000ef060201b60201c565b50565b60008151905060006a636f6e736f6c652e6c6f679050602083016000808483855afa5050505050565b82805462000f2790620011bc565b90600052602060002090601f01602090048101928262000f4b576000855562000f97565b82601f1062000f6657805160ff191683800117855562000f97565b8280016001018555821562000f97579182015b8281111562000f9657825182559160200191906001019062000f79565b5b50905062000fa6919062001078565b5090565b82805482825590600052602060002090810192821562000ffe579160200282015b8281111562000ffd57825182908051906020019062000fec92919062000f19565b509160200191906001019062000fcb565b5b5090506200100d919062001097565b5090565b82805482825590600052602060002090810192821562001065579160200282015b82811115620010645782518290805190602001906200105392919062000f19565b509160200191906001019062001032565b5b50905062001074919062001097565b5090565b5b808211156200109357600081600090555060010162001079565b5090565b5b80821115620010bb5760008181620010b19190620010bf565b5060010162001098565b5090565b508054620010cd90620011bc565b6000825580601f10620010e1575062001102565b601f01602090049060005260206000209081019062001101919062001078565b5b50565b600062001112826200116a565b6200111e818562001175565b93506200113081856020860162001186565b6200113b8162001221565b840191505092915050565b6000602082019050818103600083015262001162818462001105565b905092915050565b600081519050919050565b600082825260208201905092915050565b60005b83811015620011a657808201518184015260208101905062001189565b83811115620011b6576000848401525b50505050565b60006002820490506001821680620011d557607f821691505b60208210811415620011ec57620011eb620011f2565b5b50919050565b7f4e487b7100000000000000000000000000000000000000000000000000000000600052602260045260246000fd5b6000601f19601f8301169050919050565b613c7880620012426000396000f3fe608060405234801561001057600080fd5b50600436106101215760003560e01c80636ec0dfe5116100ad578063b88d4fde11610071578063b88d4fde14610340578063c575757a1461035c578063c87b56dd1461038c578063de9d132f146103bc578063e985e9c5146103c657610121565b80636ec0dfe51461028857806370a08231146102a657806395d89b41146102d6578063a22cb465146102f4578063b187301f1461031057610121565b806323b872dd116100f457806323b872dd146101c05780632de38d68146101dc57806342842e0e1461020c578063514dc8c6146102285780636352211e1461025857610121565b806301ffc9a71461012657806306fdde0314610156578063081812fc14610174578063095ea7b3146101a4575b600080fd5b610140600480360381019061013b919061279a565b6103f6565b60405161014d919061349e565b60405180910390f35b61015e6104d8565b60405161016b91906134b9565b60405180910390f35b61018e600480360381019061018991906127ec565b61056a565b60405161019b919061340e565b60405180910390f35b6101be60048036038101906101b9919061275e565b6105ef565b005b6101da60048036038101906101d59190612658565b610707565b005b6101f660048036038101906101f191906127ec565b610767565b60405161020391906134b9565b60405180910390f35b61022660048036038101906102219190612658565b610885565b005b610242600480360381019061023d91906127ec565b6108a5565b60405161024f91906134b9565b60405180910390f35b610272600480360381019061026d91906127ec565b6109c3565b60405161027f919061340e565b60405180910390f35b610290610a75565b60405161029d9190613769565b60405180910390f35b6102c060048036038101906102bb91906125f3565b610acc565b6040516102cd9190613769565b60405180910390f35b6102de610b84565b6040516102eb91906134b9565b60405180910390f35b61030e60048036038101906103099190612722565b610c16565b005b61032a600480360381019061032591906127ec565b610d97565b60405161033791906134b9565b60405180910390f35b61035a600480360381019061035591906126a7565b610eb5565b005b610376600480360381019061037191906127ec565b610f17565b60405161038391906134b9565b60405180910390f35b6103a660048036038101906103a191906127ec565b611035565b6040516103b391906134b9565b60405180910390f35b6103c4611187565b005b6103e060048036038101906103db919061261c565b6113d7565b6040516103ed919061349e565b60405180910390f35b60007f80ac58cd000000000000000000000000000000000000000000000000000000007bffffffffffffffffffffffffffffffffffffffffffffffffffffffff1916827bffffffffffffffffffffffffffffffffffffffffffffffffffffffff191614806104c157507f5b5e139f000000000000000000000000000000000000000000000000000000007bffffffffffffffffffffffffffffffffffffffffffffffffffffffff1916827bffffffffffffffffffffffffffffffffffffffffffffffffffffffff1916145b806104d157506104d082611504565b5b9050919050565b6060600080546104e790613a08565b80601f016020809104026020016040519081016040528092919081815260200182805461051390613a08565b80156105605780601f1061053557610100808354040283529160200191610560565b820191906000526020600020905b81548152906001019060200180831161054357829003601f168201915b5050505050905090565b60006105758261156e565b6105b4576040517f08c379a00000000000000000000000000000000000000000000000000000000081526004016105ab906136c9565b60405180910390fd5b6004600083815260200190815260200160002060009054906101000a900473ffffffffffffffffffffffffffffffffffffffff169050919050565b60006105fa826109c3565b90508073ffffffffffffffffffffffffffffffffffffffff168373ffffffffffffffffffffffffffffffffffffffff16141561066b576040517f08c379a000000000000000000000000000000000000000000000000000000000815260040161066290613729565b60405180910390fd5b8073ffffffffffffffffffffffffffffffffffffffff1661068a6115da565b73ffffffffffffffffffffffffffffffffffffffff1614806106b957506106b8816106b36115da565b6113d7565b5b6106f8576040517f08c379a00000000000000000000000000000000000000000000000000000000081526004016106ef90613609565b60405180910390fd5b61070283836115e2565b505050565b6107186107126115da565b8261169b565b610757576040517f08c379a000000000000000000000000000000000000000000000000000000000815260040161074e90613749565b60405180910390fd5b610762838383611779565b505050565b6060600061079b610777846119d5565b60405160200161078791906133a8565b604051602081830303815290604052611b82565b9050600a80549050816107ae9190613a83565b9050600a81815481106107ea577f4e487b7100000000000000000000000000000000000000000000000000000000600052603260045260246000fd5b9060005260206000200180546107ff90613a08565b80601f016020809104026020016040519081016040528092919081815260200182805461082b90613a08565b80156108785780601f1061084d57610100808354040283529160200191610878565b820191906000526020600020905b81548152906001019060200180831161085b57829003601f168201915b5050505050915050919050565b6108a083838360405180602001604052806000815250610eb5565b505050565b606060006108d96108b5846119d5565b6040516020016108c591906133ec565b604051602081830303815290604052611b82565b9050600d80549050816108ec9190613a83565b9050600d8181548110610928577f4e487b7100000000000000000000000000000000000000000000000000000000600052603260045260246000fd5b90600052602060002001805461093d90613a08565b80601f016020809104026020016040519081016040528092919081815260200182805461096990613a08565b80156109b65780601f1061098b576101008083540402835291602001916109b6565b820191906000526020600020905b81548152906001019060200180831161099957829003601f168201915b5050505050915050919050565b6000806002600084815260200190815260200160002060009054906101000a900473ffffffffffffffffffffffffffffffffffffffff169050600073ffffffffffffffffffffffffffffffffffffffff168173ffffffffffffffffffffffffffffffffffffffff161415610a6c576040517f08c379a0000000000000000000000000000000000000000000000000000000008152600401610a6390613649565b60405180910390fd5b80915050919050565b6000610ab86040518060400160405280601c81526020017f5765206861766520746f74616c206f66202564206d696e742873292100000000815250600e54611bb5565b6001600e54610ac7919061383d565b905090565b60008073ffffffffffffffffffffffffffffffffffffffff168273ffffffffffffffffffffffffffffffffffffffff161415610b3d576040517f08c379a0000000000000000000000000000000000000000000000000000000008152600401610b3490613629565b60405180910390fd5b600360008373ffffffffffffffffffffffffffffffffffffffff1673ffffffffffffffffffffffffffffffffffffffff168152602001908152602001600020549050919050565b606060018054610b9390613a08565b80601f0160208091040260200160405190810160405280929190818152602001828054610bbf90613a08565b8015610c0c5780601f10610be157610100808354040283529160200191610c0c565b820191906000526020600020905b815481529060010190602001808311610bef57829003601f168201915b5050505050905090565b610c1e6115da565b73ffffffffffffffffffffffffffffffffffffffff168273ffffffffffffffffffffffffffffffffffffffff161415610c8c576040517f08c379a0000000000000000000000000000000000000000000000000000000008152600401610c83906135c9565b60405180910390fd5b8060056000610c996115da565b73ffffffffffffffffffffffffffffffffffffffff1673ffffffffffffffffffffffffffffffffffffffff16815260200190815260200160002060008473ffffffffffffffffffffffffffffffffffffffff1673ffffffffffffffffffffffffffffffffffffffff16815260200190815260200160002060006101000a81548160ff0219169083151502179055508173ffffffffffffffffffffffffffffffffffffffff16610d466115da565b73ffffffffffffffffffffffffffffffffffffffff167f17307eab39ab6107e8899845ad3d59bd9653f200f220920489ca2b5937696c3183604051610d8b919061349e565b60405180910390a35050565b60606000610dcb610da7846119d5565b604051602001610db79190613341565b604051602081830303815290604052611b82565b9050600b8054905081610dde9190613a83565b9050600b8181548110610e1a577f4e487b7100000000000000000000000000000000000000000000000000000000600052603260045260246000fd5b906000526020600020018054610e2f90613a08565b80601f0160208091040260200160405190810160405280929190818152602001828054610e5b90613a08565b8015610ea85780601f10610e7d57610100808354040283529160200191610ea8565b820191906000526020600020905b815481529060010190602001808311610e8b57829003601f168201915b5050505050915050919050565b610ec6610ec06115da565b8361169b565b610f05576040517f08c379a0000000000000000000000000000000000000000000000000000000008152600401610efc90613749565b60405180910390fd5b610f1184848484611c51565b50505050565b60606000610f4b610f27846119d5565b604051602001610f37919061331f565b604051602081830303815290604052611b82565b9050600c8054905081610f5e9190613a83565b9050600c8181548110610f9a577f4e487b7100000000000000000000000000000000000000000000000000000000600052603260045260246000fd5b906000526020600020018054610faf90613a08565b80601f0160208091040260200160405190810160405280929190818152602001828054610fdb90613a08565b80156110285780601f10610ffd57610100808354040283529160200191611028565b820191906000526020600020905b81548152906001019060200180831161100b57829003601f168201915b5050505050915050919050565b60606110408261156e565b61107f576040517f08c379a0000000000000000000000000000000000000000000000000000000008152600401611076906136a9565b60405180910390fd5b600060066000848152602001908152602001600020805461109f90613a08565b80601f01602080910402602001604051908101604052809291908181526020018280546110cb90613a08565b80156111185780601f106110ed57610100808354040283529160200191611118565b820191906000526020600020905b8154815290600101906020018083116110fb57829003601f168201915b505050505090506000611129611cad565b905060008151141561113f578192505050611182565b60008251111561117457808260405160200161115c929190613281565b60405160208183030381529060405292505050611182565b61117d84611cc4565b925050505b919050565b6111916007611d6b565b600e819055506032600e54106111dc576040517f08c379a00000000000000000000000000000000000000000000000000000000081526004016111d390613549565b60405180910390fd5b60006111e9600e54610767565b905060006111f8600e54610d97565b90506000611207600e54610f17565b90506000838383604051602001611220939291906132a5565b6040516020818303038152906040529050600061123e600e546108a5565b9050600060088260098560405160200161125b94939291906132d6565b604051602081830303815290604052905060006112a08461127b84611d79565b60405160200161128c929190613363565b604051602081830303815290604052611d79565b90506000816040516020016112b591906133ca565b60405160208183030381529060405290506113046040518060400160405280601581526020017f0a2d2d2d2d2d2d2d2d2d2d2d2d2d2d2d2d2d2d2d2d000000000000000000000081525061146b565b61130d8161146b565b61134b6040518060400160405280601581526020017f2d2d2d2d2d2d2d2d2d2d2d2d2d2d2d2d2d2d2d2d0a000000000000000000000081525061146b565b61135733600e54611f37565b611363600e5482611f55565b61136d6007611fc9565b611392604051806060016040528060258152602001613bde60259139600e5433611fdf565b7febb98688741ffa4c7589bf325de30cf7becb63de567842e1ccdb6cb949fdc82c33600e546040516113c5929190613475565b60405180910390a15050505050505050565b6000600560008473ffffffffffffffffffffffffffffffffffffffff1673ffffffffffffffffffffffffffffffffffffffff16815260200190815260200160002060008373ffffffffffffffffffffffffffffffffffffffff1673ffffffffffffffffffffffffffffffffffffffff16815260200190815260200160002060009054906101000a900460ff16905092915050565b6115018160405160240161147f91906134b9565b6040516020818303038152906040527f41304fac000000000000000000000000000000000000000000000000000000007bffffffffffffffffffffffffffffffffffffffffffffffffffffffff19166020820180517bffffffffffffffffffffffffffffffffffffffffffffffffffffffff838183161783525050505061207e565b50565b60007f01ffc9a7000000000000000000000000000000000000000000000000000000007bffffffffffffffffffffffffffffffffffffffffffffffffffffffff1916827bffffffffffffffffffffffffffffffffffffffffffffffffffffffff1916149050919050565b60008073ffffffffffffffffffffffffffffffffffffffff166002600084815260200190815260200160002060009054906101000a900473ffffffffffffffffffffffffffffffffffffffff1673ffffffffffffffffffffffffffffffffffffffff1614159050919050565b600033905090565b816004600083815260200190815260200160002060006101000a81548173ffffffffffffffffffffffffffffffffffffffff021916908373ffffffffffffffffffffffffffffffffffffffff160217905550808273ffffffffffffffffffffffffffffffffffffffff16611655836109c3565b73ffffffffffffffffffffffffffffffffffffffff167f8c5be1e5ebec7d5bd14f71427d1e84f3dd0314c0f7b2291e5b200ac8c7c3b92560405160405180910390a45050565b60006116a68261156e565b6116e5576040517f08c379a00000000000000000000000000000000000000000000000000000000081526004016116dc906135e9565b60405180910390fd5b60006116f0836109c3565b90508073ffffffffffffffffffffffffffffffffffffffff168473ffffffffffffffffffffffffffffffffffffffff16148061175f57508373ffffffffffffffffffffffffffffffffffffffff166117478461056a565b73ffffffffffffffffffffffffffffffffffffffff16145b80611770575061176f81856113d7565b5b91505092915050565b8273ffffffffffffffffffffffffffffffffffffffff16611799826109c3565b73ffffffffffffffffffffffffffffffffffffffff16146117ef576040517f08c379a00000000000000000000000000000000000000000000000000000000081526004016117e6906136e9565b60405180910390fd5b600073ffffffffffffffffffffffffffffffffffffffff168273ffffffffffffffffffffffffffffffffffffffff16141561185f576040517f08c379a0000000000000000000000000000000000000000000000000000000008152600401611856906135a9565b60405180910390fd5b61186a8383836120a7565b6118756000826115e2565b6001600360008573ffffffffffffffffffffffffffffffffffffffff1673ffffffffffffffffffffffffffffffffffffffff16815260200190815260200160002060008282546118c5919061391e565b925050819055506001600360008473ffffffffffffffffffffffffffffffffffffffff1673ffffffffffffffffffffffffffffffffffffffff168152602001908152602001600020600082825461191c919061383d565b92505081905550816002600083815260200190815260200160002060006101000a81548173ffffffffffffffffffffffffffffffffffffffff021916908373ffffffffffffffffffffffffffffffffffffffff160217905550808273ffffffffffffffffffffffffffffffffffffffff168473ffffffffffffffffffffffffffffffffffffffff167fddf252ad1be2c89b69c2b068fc378daa952ba7f163c4a11628f55a4df523b3ef60405160405180910390a4505050565b60606000821415611a1d576040518060400160405280600181526020017f30000000000000000000000000000000000000000000000000000000000000008152509050611b7d565b600082905060005b60008214611a4f578080611a3890613a3a565b915050600a82611a489190613893565b9150611a25565b60008167ffffffffffffffff811115611a91577f4e487b7100000000000000000000000000000000000000000000000000000000600052604160045260246000fd5b6040519080825280601f01601f191660200182016040528015611ac35781602001600182028036833780820191505090505b5090505b60008514611b7657600182611adc919061391e565b9150600a85611aeb9190613a83565b6030611af7919061383d565b60f81b818381518110611b33577f4e487b7100000000000000000000000000000000000000000000000000000000600052603260045260246000fd5b60200101907effffffffffffffffffffffffffffffffffffffffffffffffffffffffffffff1916908160001a905350600a85611b6f9190613893565b9450611ac7565b8093505050505b919050565b600081604051602001611b95919061326a565b6040516020818303038152906040528051906020012060001c9050919050565b611c4d8282604051602401611bcb9291906134db565b6040516020818303038152906040527f9710a9d0000000000000000000000000000000000000000000000000000000007bffffffffffffffffffffffffffffffffffffffffffffffffffffffff19166020820180517bffffffffffffffffffffffffffffffffffffffffffffffffffffffff838183161783525050505061207e565b5050565b611c5c848484611779565b611c68848484846120ac565b611ca7576040517f08c379a0000000000000000000000000000000000000000000000000000000008152600401611c9e90613569565b60405180910390fd5b50505050565b606060405180602001604052806000815250905090565b6060611ccf8261156e565b611d0e576040517f08c379a0000000000000000000000000000000000000000000000000000000008152600401611d0590613709565b60405180910390fd5b6000611d18611cad565b90506000815111611d385760405180602001604052806000815250611d63565b80611d42846119d5565b604051602001611d53929190613281565b6040516020818303038152906040525b915050919050565b600081600001549050919050565b60606000825190506000811415611da25760405180602001604052806000815250915050611f32565b60006003600283611db3919061383d565b611dbd9190613893565b6004611dc991906138c4565b90506000602082611dda919061383d565b67ffffffffffffffff811115611e19577f4e487b7100000000000000000000000000000000000000000000000000000000600052604160045260246000fd5b6040519080825280601f01601f191660200182016040528015611e4b5781602001600182028036833780820191505090505b5090506000604051806060016040528060408152602001613c03604091399050600181016020830160005b86811015611eef5760038101905062ffffff818a015116603f8160121c168401518060081b905060ff603f83600c1c1686015116810190508060081b905060ff603f8360061c1686015116810190508060081b905060ff603f831686015116810190508060e01b90508084526004840193505050611e76565b506003860660018114611f095760028114611f1957611f24565b613d3d60f01b6002830352611f24565b603d60f81b60018303525b508484525050819450505050505b919050565b611f51828260405180602001604052806000815250612243565b5050565b611f5e8261156e565b611f9d576040517f08c379a0000000000000000000000000000000000000000000000000000000008152600401611f9490613669565b60405180910390fd5b80600660008481526020019081526020016000209080519060200190611fc492919061247f565b505050565b6001816000016000828254019250508190555050565b612079838383604051602401611ff79392919061350b565b6040516020818303038152906040527fe3849f79000000000000000000000000000000000000000000000000000000007bffffffffffffffffffffffffffffffffffffffffffffffffffffffff19166020820180517bffffffffffffffffffffffffffffffffffffffffffffffffffffffff838183161783525050505061207e565b505050565b60008151905060006a636f6e736f6c652e6c6f679050602083016000808483855afa5050505050565b505050565b60006120cd8473ffffffffffffffffffffffffffffffffffffffff1661229e565b15612236578373ffffffffffffffffffffffffffffffffffffffff1663150b7a026120f66115da565b8786866040518563ffffffff1660e01b81526004016121189493929190613429565b602060405180830381600087803b15801561213257600080fd5b505af192505050801561216357506040513d601f19601f8201168201806040525081019061216091906127c3565b60015b6121e6573d8060008114612193576040519150601f19603f3d011682016040523d82523d6000602084013e612198565b606091505b506000815114156121de576040517f08c379a00000000000000000000000000000000000000000000000000000000081526004016121d590613569565b60405180910390fd5b805181602001fd5b63150b7a0260e01b7bffffffffffffffffffffffffffffffffffffffffffffffffffffffff1916817bffffffffffffffffffffffffffffffffffffffffffffffffffffffff19161491505061223b565b600190505b949350505050565b61224d83836122b1565b61225a60008484846120ac565b612299576040517f08c379a000000000000000000000000000000000000000000000000000000000815260040161229090613569565b60405180910390fd5b505050565b600080823b905060008111915050919050565b600073ffffffffffffffffffffffffffffffffffffffff168273ffffffffffffffffffffffffffffffffffffffff161415612321576040517f08c379a000000000000000000000000000000000000000000000000000000000815260040161231890613689565b60405180910390fd5b61232a8161156e565b1561236a576040517f08c379a000000000000000000000000000000000000000000000000000000000815260040161236190613589565b60405180910390fd5b612376600083836120a7565b6001600360008473ffffffffffffffffffffffffffffffffffffffff1673ffffffffffffffffffffffffffffffffffffffff16815260200190815260200160002060008282546123c6919061383d565b92505081905550816002600083815260200190815260200160002060006101000a81548173ffffffffffffffffffffffffffffffffffffffff021916908373ffffffffffffffffffffffffffffffffffffffff160217905550808273ffffffffffffffffffffffffffffffffffffffff16600073ffffffffffffffffffffffffffffffffffffffff167fddf252ad1be2c89b69c2b068fc378daa952ba7f163c4a11628f55a4df523b3ef60405160405180910390a45050565b82805461248b90613a08565b90600052602060002090601f0160209004810192826124ad57600085556124f4565b82601f106124c657805160ff19168380011785556124f4565b828001600101855582156124f4579182015b828111156124f35782518255916020019190600101906124d8565b5b5090506125019190612505565b5090565b5b8082111561251e576000816000905550600101612506565b5090565b6000612535612530846137b5565b613784565b90508281526020810184848401111561254d57600080fd5b6125588482856139c6565b509392505050565b60008135905061256f81613b81565b92915050565b60008135905061258481613b98565b92915050565b60008135905061259981613baf565b92915050565b6000815190506125ae81613baf565b92915050565b600082601f8301126125c557600080fd5b81356125d5848260208601612522565b91505092915050565b6000813590506125ed81613bc6565b92915050565b60006020828403121561260557600080fd5b600061261384828501612560565b91505092915050565b6000806040838503121561262f57600080fd5b600061263d85828601612560565b925050602061264e85828601612560565b9150509250929050565b60008060006060848603121561266d57600080fd5b600061267b86828701612560565b935050602061268c86828701612560565b925050604061269d868287016125de565b9150509250925092565b600080600080608085870312156126bd57600080fd5b60006126cb87828801612560565b94505060206126dc87828801612560565b93505060406126ed878288016125de565b925050606085013567ffffffffffffffff81111561270a57600080fd5b612716878288016125b4565b91505092959194509250565b6000806040838503121561273557600080fd5b600061274385828601612560565b925050602061275485828601612575565b9150509250929050565b6000806040838503121561277157600080fd5b600061277f85828601612560565b9250506020612790858286016125de565b9150509250929050565b6000602082840312156127ac57600080fd5b60006127ba8482850161258a565b91505092915050565b6000602082840312156127d557600080fd5b60006127e38482850161259f565b91505092915050565b6000602082840312156127fe57600080fd5b600061280c848285016125de565b91505092915050565b61281e81613952565b82525050565b61282d81613964565b82525050565b600061283e826137fa565b6128488185613810565b93506128588185602086016139d5565b61286181613b70565b840191505092915050565b600061287782613805565b6128818185613821565b93506128918185602086016139d5565b61289a81613b70565b840191505092915050565b60006128b082613805565b6128ba8185613832565b93506128ca8185602086016139d5565b80840191505092915050565b600081546128e381613a08565b6128ed8186613832565b9450600182166000811461290857600181146129195761294c565b60ff1983168652818601935061294c565b612922856137e5565b60005b8381101561294457815481890152600182019150602081019050612925565b838801955050505b50505092915050565b6000612962603483613821565b91507f416c6c203530204e4654732068617665206265656e206d696e7465642e204e6f60008301527f206d6f72652061726520617661696c61626c652e0000000000000000000000006020830152604082019050919050565b60006129c8603283613821565b91507f4552433732313a207472616e7366657220746f206e6f6e20455243373231526560008301527f63656976657220696d706c656d656e74657200000000000000000000000000006020830152604082019050919050565b6000612a2e601c83613821565b91507f4552433732313a20746f6b656e20616c7265616479206d696e746564000000006000830152602082019050919050565b6000612a6e600a83613832565b91507f54484952445f574f5244000000000000000000000000000000000000000000006000830152600a82019050919050565b6000612aae602483613821565b91507f4552433732313a207472616e7366657220746f20746865207a65726f2061646460008301527f72657373000000000000000000000000000000000000000000000000000000006020830152604082019050919050565b6000612b14601983613821565b91507f4552433732313a20617070726f766520746f2063616c6c6572000000000000006000830152602082019050919050565b6000612b54606383613832565b91507f222c20226465736372697074696f6e223a20224120686967686c79206163636c60008301527f61696d656420636f6c6c656374696f6e206f6620737175617265732e222c202260208301527f696d616765223a2022646174613a696d6167652f7376672b786d6c3b6261736560408301527f36342c00000000000000000000000000000000000000000000000000000000006060830152606382019050919050565b6000612c06600b83613832565b91507f5345434f4e445f574f52440000000000000000000000000000000000000000006000830152600b82019050919050565b6000612c46602c83613821565b91507f4552433732313a206f70657261746f7220717565727920666f72206e6f6e657860008301527f697374656e7420746f6b656e00000000000000000000000000000000000000006020830152604082019050919050565b6000612cac600d83613832565b91507f3c2f746578743e3c2f7376673e000000000000000000000000000000000000006000830152600d82019050919050565b6000612cec603883613821565b91507f4552433732313a20617070726f76652063616c6c6572206973206e6f74206f7760008301527f6e6572206e6f7220617070726f76656420666f7220616c6c00000000000000006020830152604082019050919050565b6000612d52602a83613821565b91507f4552433732313a2062616c616e636520717565727920666f7220746865207a6560008301527f726f2061646472657373000000000000000000000000000000000000000000006020830152604082019050919050565b6000612db8602983613821565b91507f4552433732313a206f776e657220717565727920666f72206e6f6e657869737460008301527f656e7420746f6b656e00000000000000000000000000000000000000000000006020830152604082019050919050565b6000612e1e602e83613821565b91507f45524337323155524953746f726167653a2055524920736574206f66206e6f6e60008301527f6578697374656e7420746f6b656e0000000000000000000000000000000000006020830152604082019050919050565b6000612e84600283613832565b91507f227d0000000000000000000000000000000000000000000000000000000000006000830152600282019050919050565b6000612ec4602083613821565b91507f4552433732313a206d696e7420746f20746865207a65726f20616464726573736000830152602082019050919050565b6000612f04603183613821565b91507f45524337323155524953746f726167653a2055524920717565727920666f722060008301527f6e6f6e6578697374656e7420746f6b656e0000000000000000000000000000006020830152604082019050919050565b6000612f6a602c83613821565b91507f4552433732313a20617070726f76656420717565727920666f72206e6f6e657860008301527f697374656e7420746f6b656e00000000000000000000000000000000000000006020830152604082019050919050565b6000612fd0602983613821565b91507f4552433732313a207472616e73666572206f6620746f6b656e2074686174206960008301527f73206e6f74206f776e00000000000000000000000000000000000000000000006020830152604082019050919050565b6000613036602f83613821565b91507f4552433732314d657461646174613a2055524920717565727920666f72206e6f60008301527f6e6578697374656e7420746f6b656e00000000000000000000000000000000006020830152604082019050919050565b600061309c600a83613832565b91507f7b226e616d65223a2022000000000000000000000000000000000000000000006000830152600a82019050919050565b60006130dc602183613821565b91507f4552433732313a20617070726f76616c20746f2063757272656e74206f776e6560008301527f72000000000000000000000000000000000000000000000000000000000000006020830152604082019050919050565b6000613142600a83613832565b91507f46495253545f574f5244000000000000000000000000000000000000000000006000830152600a82019050919050565b6000613182601d83613832565b91507f646174613a6170706c69636174696f6e2f6a736f6e3b6261736536342c0000006000830152601d82019050919050565b60006131c2603183613821565b91507f4552433732313a207472616e736665722063616c6c6572206973206e6f74206f60008301527f776e6572206e6f7220617070726f7665640000000000000000000000000000006020830152604082019050919050565b6000613228600583613832565b91507f434f4c4f520000000000000000000000000000000000000000000000000000006000830152600582019050919050565b613264816139bc565b82525050565b600061327682846128a5565b915081905092915050565b600061328d82856128a5565b915061329982846128a5565b91508190509392505050565b60006132b182866128a5565b91506132bd82856128a5565b91506132c982846128a5565b9150819050949350505050565b60006132e282876128d6565b91506132ee82866128a5565b91506132fa82856128d6565b915061330682846128a5565b915061331182612c9f565b915081905095945050505050565b600061332a82612a61565b915061333682846128a5565b915081905092915050565b600061334c82612bf9565b915061335882846128a5565b915081905092915050565b600061336e8261308f565b915061337a82856128a5565b915061338582612b47565b915061339182846128a5565b915061339c82612e77565b91508190509392505050565b60006133b382613135565b91506133bf82846128a5565b915081905092915050565b60006133d582613175565b91506133e182846128a5565b915081905092915050565b60006133f78261321b565b915061340382846128a5565b915081905092915050565b60006020820190506134236000830184612815565b92915050565b600060808201905061343e6000830187612815565b61344b6020830186612815565b613458604083018561325b565b818103606083015261346a8184612833565b905095945050505050565b600060408201905061348a6000830185612815565b613497602083018461325b565b9392505050565b60006020820190506134b36000830184612824565b92915050565b600060208201905081810360008301526134d3818461286c565b905092915050565b600060408201905081810360008301526134f5818561286c565b9050613504602083018461325b565b9392505050565b60006060820190508181036000830152613525818661286c565b9050613534602083018561325b565b6135416040830184612815565b949350505050565b6000602082019050818103600083015261356281612955565b9050919050565b60006020820190508181036000830152613582816129bb565b9050919050565b600060208201905081810360008301526135a281612a21565b9050919050565b600060208201905081810360008301526135c281612aa1565b9050919050565b600060208201905081810360008301526135e281612b07565b9050919050565b6000602082019050818103600083015261360281612c39565b9050919050565b6000602082019050818103600083015261362281612cdf565b9050919050565b6000602082019050818103600083015261364281612d45565b9050919050565b6000602082019050818103600083015261366281612dab565b9050919050565b6000602082019050818103600083015261368281612e11565b9050919050565b600060208201905081810360008301526136a281612eb7565b9050919050565b600060208201905081810360008301526136c281612ef7565b9050919050565b600060208201905081810360008301526136e281612f5d565b9050919050565b6000602082019050818103600083015261370281612fc3565b9050919050565b6000602082019050818103600083015261372281613029565b9050919050565b60006020820190508181036000830152613742816130cf565b9050919050565b60006020820190508181036000830152613762816131b5565b9050919050565b600060208201905061377e600083018461325b565b92915050565b6000604051905081810181811067ffffffffffffffff821117156137ab576137aa613b41565b5b8060405250919050565b600067ffffffffffffffff8211156137d0576137cf613b41565b5b601f19601f8301169050602081019050919050565b60008190508160005260206000209050919050565b600081519050919050565b600081519050919050565b600082825260208201905092915050565b600082825260208201905092915050565b600081905092915050565b6000613848826139bc565b9150613853836139bc565b9250827fffffffffffffffffffffffffffffffffffffffffffffffffffffffffffffffff0382111561388857613887613ab4565b5b828201905092915050565b600061389e826139bc565b91506138a9836139bc565b9250826138b9576138b8613ae3565b5b828204905092915050565b60006138cf826139bc565b91506138da836139bc565b9250817fffffffffffffffffffffffffffffffffffffffffffffffffffffffffffffffff048311821515161561391357613912613ab4565b5b828202905092915050565b6000613929826139bc565b9150613934836139bc565b92508282101561394757613946613ab4565b5b828203905092915050565b600061395d8261399c565b9050919050565b60008115159050919050565b60007fffffffff0000000000000000000000000000000000000000000000000000000082169050919050565b600073ffffffffffffffffffffffffffffffffffffffff82169050919050565b6000819050919050565b82818337600083830152505050565b60005b838110156139f35780820151818401526020810190506139d8565b83811115613a02576000848401525b50505050565b60006002820490506001821680613a2057607f821691505b60208210811415613a3457613a33613b12565b5b50919050565b6000613a45826139bc565b91507fffffffffffffffffffffffffffffffffffffffffffffffffffffffffffffffff821415613a7857613a77613ab4565b5b600182019050919050565b6000613a8e826139bc565b9150613a99836139bc565b925082613aa957613aa8613ae3565b5b828206905092915050565b7f4e487b7100000000000000000000000000000000000000000000000000000000600052601160045260246000fd5b7f4e487b7100000000000000000000000000000000000000000000000000000000600052601260045260246000fd5b7f4e487b7100000000000000000000000000000000000000000000000000000000600052602260045260246000fd5b7f4e487b7100000000000000000000000000000000000000000000000000000000600052604160045260246000fd5b6000601f19601f8301169050919050565b613b8a81613952565b8114613b9557600080fd5b50565b613ba181613964565b8114613bac57600080fd5b50565b613bb881613970565b8114613bc357600080fd5b50565b613bcf816139bc565b8114613bda57600080fd5b5056fe416e204e465420772f20494420257320686173206265656e206d696e74656420746f2025734142434445464748494a4b4c4d4e4f505152535455565758595a6162636465666768696a6b6c6d6e6f707172737475767778797a303132333435363738392b2fa26469706673582212200f218152073f2d9e94925713627792b9506175132768d725d9516aa5c9a73a3b64736f6c634300080000333c73766720786d6c6e733d27687474703a2f2f7777772e77332e6f72672f323030302f73766727207072657365727665417370656374526174696f3d27784d696e594d696e206d656574272076696577426f783d273020302033353020333530273e3c7374796c653e2e62617365207b2066696c6c3a2077686974653b20666f6e742d66616d696c793a2073657269663b20666f6e742d73697a653a20323470783b207d3c2f7374796c653e3c726563742077696474683d273130302527206865696768743d2731303025272066696c6c3d27272f3e3c7465787420783d273530252720793d273530252720636c6173733d27626173652720646f6d696e616e742d626173656c696e653d276d6964646c652720746578742d616e63686f723d276d6964646c65273e",
  "linkReferences": {},
  "deployedLinkReferences": {}
}